{
  "_format": "hh-sol-artifact-1",
  "contractName": "MyERC1155NFT",
  "sourceName": "contracts/MyERC1155NFT.sol",
  "abi": [
    {
      "inputs": [],
      "stateMutability": "nonpayable",
      "type": "constructor"
    },
    {
      "anonymous": false,
      "inputs": [
        {
          "indexed": true,
          "internalType": "address",
          "name": "account",
          "type": "address"
        },
        {
          "indexed": true,
          "internalType": "address",
          "name": "operator",
          "type": "address"
        },
        {
          "indexed": false,
          "internalType": "bool",
          "name": "approved",
          "type": "bool"
        }
      ],
      "name": "ApprovalForAll",
      "type": "event"
    },
    {
      "anonymous": false,
      "inputs": [
        {
          "indexed": true,
          "internalType": "address",
          "name": "previousOwner",
          "type": "address"
        },
        {
          "indexed": true,
          "internalType": "address",
          "name": "newOwner",
          "type": "address"
        }
      ],
      "name": "OwnershipTransferred",
      "type": "event"
    },
    {
      "anonymous": false,
      "inputs": [
        {
          "indexed": true,
          "internalType": "address",
          "name": "operator",
          "type": "address"
        },
        {
          "indexed": true,
          "internalType": "address",
          "name": "from",
          "type": "address"
        },
        {
          "indexed": true,
          "internalType": "address",
          "name": "to",
          "type": "address"
        },
        {
          "indexed": false,
          "internalType": "uint256[]",
          "name": "ids",
          "type": "uint256[]"
        },
        {
          "indexed": false,
          "internalType": "uint256[]",
          "name": "values",
          "type": "uint256[]"
        }
      ],
      "name": "TransferBatch",
      "type": "event"
    },
    {
      "anonymous": false,
      "inputs": [
        {
          "indexed": true,
          "internalType": "address",
          "name": "operator",
          "type": "address"
        },
        {
          "indexed": true,
          "internalType": "address",
          "name": "from",
          "type": "address"
        },
        {
          "indexed": true,
          "internalType": "address",
          "name": "to",
          "type": "address"
        },
        {
          "indexed": false,
          "internalType": "uint256",
          "name": "id",
          "type": "uint256"
        },
        {
          "indexed": false,
          "internalType": "uint256",
          "name": "value",
          "type": "uint256"
        }
      ],
      "name": "TransferSingle",
      "type": "event"
    },
    {
      "anonymous": false,
      "inputs": [
        {
          "indexed": false,
          "internalType": "string",
          "name": "value",
          "type": "string"
        },
        {
          "indexed": true,
          "internalType": "uint256",
          "name": "id",
          "type": "uint256"
        }
      ],
      "name": "URI",
      "type": "event"
    },
    {
      "inputs": [
        {
          "internalType": "address",
          "name": "account",
          "type": "address"
        },
        {
          "internalType": "uint256",
          "name": "id",
          "type": "uint256"
        }
      ],
      "name": "balanceOf",
      "outputs": [
        {
          "internalType": "uint256",
          "name": "",
          "type": "uint256"
        }
      ],
      "stateMutability": "view",
      "type": "function"
    },
    {
      "inputs": [
        {
          "internalType": "address[]",
          "name": "accounts",
          "type": "address[]"
        },
        {
          "internalType": "uint256[]",
          "name": "ids",
          "type": "uint256[]"
        }
      ],
      "name": "balanceOfBatch",
      "outputs": [
        {
          "internalType": "uint256[]",
          "name": "",
          "type": "uint256[]"
        }
      ],
      "stateMutability": "view",
      "type": "function"
    },
    {
      "inputs": [
        {
          "internalType": "address",
          "name": "account",
          "type": "address"
        },
        {
          "internalType": "address",
          "name": "operator",
          "type": "address"
        }
      ],
      "name": "isApprovedForAll",
      "outputs": [
        {
          "internalType": "bool",
          "name": "",
          "type": "bool"
        }
      ],
      "stateMutability": "view",
      "type": "function"
    },
    {
      "inputs": [
        {
          "internalType": "address",
          "name": "recipient",
          "type": "address"
        },
        {
          "internalType": "string",
          "name": "_tokenURI",
          "type": "string"
        }
      ],
      "name": "mintNFT",
      "outputs": [
        {
          "internalType": "uint256",
          "name": "",
          "type": "uint256"
        }
      ],
      "stateMutability": "nonpayable",
      "type": "function"
    },
    {
      "inputs": [],
      "name": "owner",
      "outputs": [
        {
          "internalType": "address",
          "name": "",
          "type": "address"
        }
      ],
      "stateMutability": "view",
      "type": "function"
    },
    {
      "inputs": [],
      "name": "renounceOwnership",
      "outputs": [],
      "stateMutability": "nonpayable",
      "type": "function"
    },
    {
      "inputs": [
        {
          "internalType": "address",
          "name": "from",
          "type": "address"
        },
        {
          "internalType": "address",
          "name": "to",
          "type": "address"
        },
        {
          "internalType": "uint256[]",
          "name": "ids",
          "type": "uint256[]"
        },
        {
          "internalType": "uint256[]",
          "name": "amounts",
          "type": "uint256[]"
        },
        {
          "internalType": "bytes",
          "name": "data",
          "type": "bytes"
        }
      ],
      "name": "safeBatchTransferFrom",
      "outputs": [],
      "stateMutability": "nonpayable",
      "type": "function"
    },
    {
      "inputs": [
        {
          "internalType": "address",
          "name": "from",
          "type": "address"
        },
        {
          "internalType": "address",
          "name": "to",
          "type": "address"
        },
        {
          "internalType": "uint256",
          "name": "id",
          "type": "uint256"
        },
        {
          "internalType": "uint256",
          "name": "amount",
          "type": "uint256"
        },
        {
          "internalType": "bytes",
          "name": "data",
          "type": "bytes"
        }
      ],
      "name": "safeTransferFrom",
      "outputs": [],
      "stateMutability": "nonpayable",
      "type": "function"
    },
    {
      "inputs": [
        {
          "internalType": "address",
          "name": "operator",
          "type": "address"
        },
        {
          "internalType": "bool",
          "name": "approved",
          "type": "bool"
        }
      ],
      "name": "setApprovalForAll",
      "outputs": [],
      "stateMutability": "nonpayable",
      "type": "function"
    },
    {
      "inputs": [
        {
          "internalType": "bytes4",
          "name": "interfaceId",
          "type": "bytes4"
        }
      ],
      "name": "supportsInterface",
      "outputs": [
        {
          "internalType": "bool",
          "name": "",
          "type": "bool"
        }
      ],
      "stateMutability": "view",
      "type": "function"
    },
    {
      "inputs": [
        {
          "internalType": "address",
          "name": "newOwner",
          "type": "address"
        }
      ],
      "name": "transferOwnership",
      "outputs": [],
      "stateMutability": "nonpayable",
      "type": "function"
    },
    {
      "inputs": [
        {
          "internalType": "uint256",
          "name": "",
          "type": "uint256"
        }
      ],
      "name": "uri",
      "outputs": [
        {
          "internalType": "string",
          "name": "",
          "type": "string"
        }
      ],
      "stateMutability": "view",
      "type": "function"
    }
  ],
  "bytecode": "0x60806040523480156200001157600080fd5b506040805160208101909152600081526200002c816200003e565b50620000383362000057565b6200018c565b805162000053906002906020840190620000a9565b5050565b600380546001600160a01b038381166001600160a01b0319831681179093556040519116919082907f8be0079c531659141344cd1fd0a4f28419497f9722a3daafe3b4186f6b6457e090600090a35050565b828054620000b7906200014f565b90600052602060002090601f016020900481019282620000db576000855562000126565b82601f10620000f657805160ff191683800117855562000126565b8280016001018555821562000126579182015b828111156200012657825182559160200191906001019062000109565b506200013492915062000138565b5090565b5b8082111562000134576000815560010162000139565b600181811c908216806200016457607f821691505b602082108114156200018657634e487b7160e01b600052602260045260246000fd5b50919050565b611833806200019c6000396000f3fe608060405234801561001057600080fd5b50600436106100b35760003560e01c80638da5cb5b116100715780638da5cb5b1461015e578063a22cb46514610179578063e985e9c51461018c578063eacabe14146101c8578063f242432a146101db578063f2fde38b146101ee57600080fd5b8062fdd58e146100b857806301ffc9a7146100de5780630e89341c146101015780632eb2c2d6146101215780634e1273f414610136578063715018a614610156575b600080fd5b6100cb6100c6366004610f8d565b610201565b6040519081526020015b60405180910390f35b6100f16100ec366004610fcd565b610298565b60405190151581526020016100d5565b61011461010f366004610fea565b6102ea565b6040516100d59190611050565b61013461012f3660046111b9565b61037e565b005b610149610144366004611263565b610415565b6040516100d59190611369565b61013461053f565b6003546040516001600160a01b0390911681526020016100d5565b61013461018736600461137c565b610575565b6100f161019a3660046113b8565b6001600160a01b03918216600090815260016020908152604080832093909416825291909152205460ff1690565b6100cb6101d63660046113eb565b610584565b6101346101e9366004611443565b6105f9565b6101346101fc3660046114a8565b610680565b60006001600160a01b0383166102725760405162461bcd60e51b815260206004820152602b60248201527f455243313135353a2062616c616e636520717565727920666f7220746865207a60448201526a65726f206164647265737360a81b60648201526084015b60405180910390fd5b506000908152602081815260408083206001600160a01b03949094168352929052205490565b60006001600160e01b03198216636cdb3d1360e11b14806102c957506001600160e01b031982166303a24d0760e21b145b806102e457506301ffc9a760e01b6001600160e01b03198316145b92915050565b6060600280546102f9906114c3565b80601f0160208091040260200160405190810160405280929190818152602001828054610325906114c3565b80156103725780601f1061034757610100808354040283529160200191610372565b820191906000526020600020905b81548152906001019060200180831161035557829003601f168201915b50505050509050919050565b6001600160a01b03851633148061039a575061039a853361019a565b6104015760405162461bcd60e51b815260206004820152603260248201527f455243313135353a207472616e736665722063616c6c6572206973206e6f74206044820152711bdddb995c881b9bdc88185c1c1c9bdd995960721b6064820152608401610269565b61040e858585858561071b565b5050505050565b6060815183511461047a5760405162461bcd60e51b815260206004820152602960248201527f455243313135353a206163636f756e747320616e6420696473206c656e677468604482015268040dad2e6dac2e8c6d60bb1b6064820152608401610269565b6000835167ffffffffffffffff81111561049657610496611063565b6040519080825280602002602001820160405280156104bf578160200160208202803683370190505b50905060005b84518110156105375761050a8582815181106104e3576104e36114fe565b60200260200101518583815181106104fd576104fd6114fe565b6020026020010151610201565b82828151811061051c5761051c6114fe565b60209081029190910101526105308161152a565b90506104c5565b509392505050565b6003546001600160a01b031633146105695760405162461bcd60e51b815260040161026990611545565b61057360006108f8565b565b61058033838361094a565b5050565b6003546000906001600160a01b031633146105b15760405162461bcd60e51b815260040161026990611545565b6105bf600480546001019055565b60006105ca60045490565b90506105e88482600160405180602001604052806000815250610a2b565b6105f28184610b35565b9392505050565b6001600160a01b0385163314806106155750610615853361019a565b6106735760405162461bcd60e51b815260206004820152602960248201527f455243313135353a2063616c6c6572206973206e6f74206f776e6572206e6f7260448201526808185c1c1c9bdd995960ba1b6064820152608401610269565b61040e8585858585610b59565b6003546001600160a01b031633146106aa5760405162461bcd60e51b815260040161026990611545565b6001600160a01b03811661070f5760405162461bcd60e51b815260206004820152602660248201527f4f776e61626c653a206e6577206f776e657220697320746865207a65726f206160448201526564647265737360d01b6064820152608401610269565b610718816108f8565b50565b815183511461077d5760405162461bcd60e51b815260206004820152602860248201527f455243313135353a2069647320616e6420616d6f756e7473206c656e677468206044820152670dad2e6dac2e8c6d60c31b6064820152608401610269565b6001600160a01b0384166107a35760405162461bcd60e51b81526004016102699061157a565b3360005b845181101561088a5760008582815181106107c4576107c46114fe565b6020026020010151905060008583815181106107e2576107e26114fe565b602090810291909101810151600084815280835260408082206001600160a01b038e1683529093529190912054909150818110156108325760405162461bcd60e51b8152600401610269906115bf565b6000838152602081815260408083206001600160a01b038e8116855292528083208585039055908b1682528120805484929061086f908490611609565b92505081905550505050806108839061152a565b90506107a7565b50846001600160a01b0316866001600160a01b0316826001600160a01b03167f4a39dc06d4c0dbc64b70af90fd698a233a518aa5d07e595d983b8c0526c8f7fb87876040516108da929190611621565b60405180910390a46108f0818787878787610c76565b505050505050565b600380546001600160a01b038381166001600160a01b0319831681179093556040519116919082907f8be0079c531659141344cd1fd0a4f28419497f9722a3daafe3b4186f6b6457e090600090a35050565b816001600160a01b0316836001600160a01b031614156109be5760405162461bcd60e51b815260206004820152602960248201527f455243313135353a2073657474696e6720617070726f76616c20737461747573604482015268103337b91039b2b63360b91b6064820152608401610269565b6001600160a01b03838116600081815260016020908152604080832094871680845294825291829020805460ff191686151590811790915591519182527f17307eab39ab6107e8899845ad3d59bd9653f200f220920489ca2b5937696c31910160405180910390a3505050565b6001600160a01b038416610a8b5760405162461bcd60e51b815260206004820152602160248201527f455243313135353a206d696e7420746f20746865207a65726f206164647265736044820152607360f81b6064820152608401610269565b33610aa581600087610a9c88610dd2565b61040e88610dd2565b6000848152602081815260408083206001600160a01b038916845290915281208054859290610ad5908490611609565b909155505060408051858152602081018590526001600160a01b0380881692600092918516917fc3d58168c5ae7397731d063d5bbf3d657854427343f4c083240f7aacaa2d0f62910160405180910390a461040e81600087878787610e1d565b60008281526005602090815260409091208251610b5492840190610ed8565b505050565b6001600160a01b038416610b7f5760405162461bcd60e51b81526004016102699061157a565b33610b8f818787610a9c88610dd2565b6000848152602081815260408083206001600160a01b038a16845290915290205483811015610bd05760405162461bcd60e51b8152600401610269906115bf565b6000858152602081815260408083206001600160a01b038b8116855292528083208785039055908816825281208054869290610c0d908490611609565b909155505060408051868152602081018690526001600160a01b03808916928a821692918616917fc3d58168c5ae7397731d063d5bbf3d657854427343f4c083240f7aacaa2d0f62910160405180910390a4610c6d828888888888610e1d565b50505050505050565b6001600160a01b0384163b156108f05760405163bc197c8160e01b81526001600160a01b0385169063bc197c8190610cba908990899088908890889060040161164f565b6020604051808303816000875af1925050508015610cf5575060408051601f3d908101601f19168201909252610cf2918101906116ad565b60015b610da257610d016116ca565b806308c379a01415610d3b5750610d166116e6565b80610d215750610d3d565b8060405162461bcd60e51b81526004016102699190611050565b505b60405162461bcd60e51b815260206004820152603460248201527f455243313135353a207472616e7366657220746f206e6f6e20455243313135356044820152732932b1b2b4bb32b91034b6b83632b6b2b73a32b960611b6064820152608401610269565b6001600160e01b0319811663bc197c8160e01b14610c6d5760405162461bcd60e51b815260040161026990611770565b60408051600180825281830190925260609160009190602080830190803683370190505090508281600081518110610e0c57610e0c6114fe565b602090810291909101015292915050565b6001600160a01b0384163b156108f05760405163f23a6e6160e01b81526001600160a01b0385169063f23a6e6190610e6190899089908890889088906004016117b8565b6020604051808303816000875af1925050508015610e9c575060408051601f3d908101601f19168201909252610e99918101906116ad565b60015b610ea857610d016116ca565b6001600160e01b0319811663f23a6e6160e01b14610c6d5760405162461bcd60e51b815260040161026990611770565b828054610ee4906114c3565b90600052602060002090601f016020900481019282610f065760008555610f4c565b82601f10610f1f57805160ff1916838001178555610f4c565b82800160010185558215610f4c579182015b82811115610f4c578251825591602001919060010190610f31565b50610f58929150610f5c565b5090565b5b80821115610f585760008155600101610f5d565b80356001600160a01b0381168114610f8857600080fd5b919050565b60008060408385031215610fa057600080fd5b610fa983610f71565b946020939093013593505050565b6001600160e01b03198116811461071857600080fd5b600060208284031215610fdf57600080fd5b81356105f281610fb7565b600060208284031215610ffc57600080fd5b5035919050565b6000815180845260005b818110156110295760208185018101518683018201520161100d565b8181111561103b576000602083870101525b50601f01601f19169290920160200192915050565b6020815260006105f26020830184611003565b634e487b7160e01b600052604160045260246000fd5b601f8201601f1916810167ffffffffffffffff8111828210171561109f5761109f611063565b6040525050565b600067ffffffffffffffff8211156110c0576110c0611063565b5060051b60200190565b600082601f8301126110db57600080fd5b813560206110e8826110a6565b6040516110f58282611079565b83815260059390931b850182019282810191508684111561111557600080fd5b8286015b848110156111305780358352918301918301611119565b509695505050505050565b600067ffffffffffffffff83111561115557611155611063565b60405161116c601f8501601f191660200182611079565b80915083815284848401111561118157600080fd5b83836020830137600060208583010152509392505050565b600082601f8301126111aa57600080fd5b6105f28383356020850161113b565b600080600080600060a086880312156111d157600080fd5b6111da86610f71565b94506111e860208701610f71565b9350604086013567ffffffffffffffff8082111561120557600080fd5b61121189838a016110ca565b9450606088013591508082111561122757600080fd5b61123389838a016110ca565b9350608088013591508082111561124957600080fd5b5061125688828901611199565b9150509295509295909350565b6000806040838503121561127657600080fd5b823567ffffffffffffffff8082111561128e57600080fd5b818501915085601f8301126112a257600080fd5b813560206112af826110a6565b6040516112bc8282611079565b83815260059390931b85018201928281019150898411156112dc57600080fd5b948201945b83861015611301576112f286610f71565b825294820194908201906112e1565b9650508601359250508082111561131757600080fd5b50611324858286016110ca565b9150509250929050565b600081518084526020808501945080840160005b8381101561135e57815187529582019590820190600101611342565b509495945050505050565b6020815260006105f2602083018461132e565b6000806040838503121561138f57600080fd5b61139883610f71565b9150602083013580151581146113ad57600080fd5b809150509250929050565b600080604083850312156113cb57600080fd5b6113d483610f71565b91506113e260208401610f71565b90509250929050565b600080604083850312156113fe57600080fd5b61140783610f71565b9150602083013567ffffffffffffffff81111561142357600080fd5b8301601f8101851361143457600080fd5b6113248582356020840161113b565b600080600080600060a0868803121561145b57600080fd5b61146486610f71565b945061147260208701610f71565b93506040860135925060608601359150608086013567ffffffffffffffff81111561149c57600080fd5b61125688828901611199565b6000602082840312156114ba57600080fd5b6105f282610f71565b600181811c908216806114d757607f821691505b602082108114156114f857634e487b7160e01b600052602260045260246000fd5b50919050565b634e487b7160e01b600052603260045260246000fd5b634e487b7160e01b600052601160045260246000fd5b600060001982141561153e5761153e611514565b5060010190565b6020808252818101527f4f776e61626c653a2063616c6c6572206973206e6f7420746865206f776e6572604082015260600190565b60208082526025908201527f455243313135353a207472616e7366657220746f20746865207a65726f206164604082015264647265737360d81b606082015260800190565b6020808252602a908201527f455243313135353a20696e73756666696369656e742062616c616e636520666f60408201526939103a3930b739b332b960b11b606082015260800190565b6000821982111561161c5761161c611514565b500190565b604081526000611634604083018561132e565b8281036020840152611646818561132e565b95945050505050565b6001600160a01b0386811682528516602082015260a06040820181905260009061167b9083018661132e565b828103606084015261168d818661132e565b905082810360808401526116a18185611003565b98975050505050505050565b6000602082840312156116bf57600080fd5b81516105f281610fb7565b600060033d11156116e35760046000803e5060005160e01c5b90565b600060443d10156116f45790565b6040516003193d81016004833e81513d67ffffffffffffffff816024840111818411171561172457505050505090565b828501915081518181111561173c5750505050505090565b843d87010160208285010111156117565750505050505090565b61176560208286010187611079565b509095945050505050565b60208082526028908201527f455243313135353a204552433131353552656365697665722072656a656374656040820152676420746f6b656e7360c01b606082015260800190565b6001600160a01b03868116825285166020820152604081018490526060810183905260a0608082018190526000906117f290830184611003565b97965050505050505056fea2646970667358221220c32ee0c47cc83deda8b860013a41f652f2cea1e5c6a6379459010dac40464af564736f6c634300080c0033",
  "linkReferences": {},
  "deployedLinkReferences": {}
}